S018000073696D706C655F696E746572727570742E7372656336
S113000033C00000A3C00000B8C0000048C0000016
S113001046C0000044C0000042C0000040C00000D0
S11300203EC000003CC000003AC0000038C00000E0
S113003036C0000034C0000032C0000030C00000F0
S11300402EC000002CC000002AC0000028C0000000
S113005026C0000024C0000022C0000020C0000010
S11300601EC000001CC0000011241FBECFEFD8E04A
S1130070DEBFCDBF11E0A0E0B1E0E0E4FCE002C0EF
S113008005900D92A834B107D9F721E0A8E4B1E0B6
S113009001C01D92AF36B207E1F786D0CFC5B0CF0D
S11300A0219A87E893E1909387008093860086E7FE
S11300B091E09093890080938800E0E8F0E08081EB
S11300C082688083E1E8F0E080818B618083089519
S11300D0682F70E080E090E0EAD120E030E044E373
S11300E053E44FD120E030E84BEB53E46CD220E0F2
S11300F030E04BE353E4E1D0ACD1709389006093DA
S1130100880008951092C50087E68093C400109279
S1130110C00088E18093C10086E08093C200089506
S1130120E0ECF0E0908195FFFDCF8093C600089548
S1130130CF93DF93EC018881882329F02196F0DFA7
S113014089918111FCCFDF91CF9108951F920F9275
S11301500FB60F9211248F939F9380910001909179
S11301600101019790930101809300019F918F9168
S11301700F900FBE0F901F9018951F920F920FB6FD
S11301800F9211248F939F9380910001909101010C
S1130190019690930101809300019F918F910F909C
S11301A00FBE0F901F901895259A2D985A9A5B9A16
S11301B08FE08093690083E08DBB7894A3DF70DFC8
S11301C0EAE7F0E087E88083ACE7B0E08C918064F4
S11301D08C9380818064808382E091E0A9DFA12CEC
S11301E0B12CCAE7D0E00F2EF8E7CF2ED12CF02D9A
S11301F00F2EF5E2EF2EF1E0FF2EF02D08E411E0D2
S1130200888186FDFDCFF6016081718180E090E0F8
S11302104CD120E030E44CE950E4D5D120E030E08A
S113022040E251E4AED020E030E040E151E4CBD1F3
S113023020E030E040EA50E4A4D020E030E040E0A8
S113024052E43BD006D170936D0160936C0182E25D
S113025091E06EDF809101018F93809100018F9373
S113026080916D018F9380916C018F93FF92EF9237
S11302701F930F930BD2C8015BDF8DB79EB708960F
S11302800FB6F8949EBF0FBE8DBF20916C013091C4
S11302906D0180910001909101018217930738F458
S11302A09FEFA91AB90A8A2D13DF2D9A01C02D9840
S11302B0888180648883A4CF5058BB27AA270ED096
S11302C048C139D130F03ED120F031F49F3F11F4D0
S11302D01EF42EC10EF4E095E7FB24C1E92F4AD1A8
S11302E080F3BA17620773078407950718F071F44F
S11302F09EF562C10EF4E0950B2EBA2FA02D0B01D2
S1130300B90190010C01CA01A0011124FF27591B56
S113031099F0593F50F4503E68F11A16F040A22F5C
S1130320232F342F4427585FF3CF469537952795CD
S1130330A795F0405395C9F77EF41F16BA0B620BCC
S1130340730B840BBAF09150A1F0FF0FBB1F661F13
S1130350771F881FC2F70EC0BA0F621F731F841F56
S113036048F4879577956795B795F7959E3F08F07C
S1130370B3CF9395880F08F09927EE0F979587953B
S113038008950CD0E6C0DED040F0D5D030F021F492
S11303905F3F19F0C7C0511110C1CAC0EBD098F328
S11303A09923C9F35523B1F3951B550BBB27AA27F2
S11303B062177307840738F09F5F5F4F220F331F64
S11303C0441FAA1FA9F333D00E2E3AF0E0E830D030
S11303D091505040E695001CCAF729D0FE2F27D033
S11303E0660F771F881FBB1F261737074807AB0701
S11303F0B0E809F0BB0B802DBF01FF2793585F4F76
S11304002AF09E3F510568F08DC0D7C05F3FECF3E2
S1130410983EDCF3869577956795B795F7959F5F3A
S1130420C9F7880F911D9695879597F90895E1E08E
S1130430660F771F881FBB1F621773078407BA07ED
S113044020F0621B730B840BBA0BEE1F88F7E09548
S1130450089598D088F09F5790F0B92F9927B751F5
S1130460A0F0D1F0660F771F881F991F1AF0BA9574
S1130470C9F712C0B13081F09FD0B1E008959CC09B
S1130480672F782F8827B85F39F0B93FCCF386956A
S113049077956795B395D9F73EF4909580957095C7
S11304A061957F4F8F4F9F4F0895E89409C097FB44
S11304B03EF490958095709561957F4F8F4F9F4F37
S11304C09923A9F0F92F96E9BB279395F69587957B
S11304D077956795B795F111F8CFFAF4BB0F11F43E
S11304E060FF1BC06F5F7F4F8F4F9F4F16C08823E5
S11304F011F096E911C0772321F09EE8872F762F1B
S113050005C0662371F096E8862F70E060E02AF05B
S11305109A95660F771F881FDAF7880F9695879547
S113052097F9089597F99F6780E870E060E008956F
S11305309FEF80EC089500240A94161617061806F7
S11305400906089500240A941216130614060506D3
S11305500895092E0394000C11F4882352F0BB0F64
S113056040F4BF2B11F460FF04C06F5F7F4F8F4FC7
S11305709F4F089557FD9058440F551F59F05F3F02
S113058071F04795880F97FB991F61F09F3F79F0B1
S113059087950895121613061406551FF2CF469533
S11305A0F1DF08C0161617061806991FF1CF8695B5
S11305B07105610508940895E894BB276627772799
S11305C0CB0197F908950BD0C4CFB5DF28F0BADF7B
S11305D018F0952309F0A6CFABCF1124EECFCADFD4
S11305E0A0F3959FD1F3950F50E0551F629FF00142
S11305F0729FBB27F00DB11D639FAA27F00DB11D9B
S1130600AA1F649F6627B00DA11D661F829F222723
S1130610B00DA11D621F739FB00DA11D621F839FAA
S1130620A00D611D221F749F3327A00D611D231F80
S1130630849F600D211D822F762F6A2F11249F57CE
S113064050408AF0E1F088234AF0EE0FFF1FBB1FF1
S1130650661F771F881F91505040A9F79E3F510590
S113066070F060CFAACF5F3FECF3983EDCF3869541
S113067077956795B795F795E7959F5FC1F7FE2B3B
S1130680880F911D9695879597F90895AEE0B0E08F
S1130690EBE4F3E0AAC20D891E8986E08C831A83F9
S11306A009838FEF9FE79E838D83AE01475E5F4F83
S11306B06F89788DCE01019608D0EF81F885E00F1F
S11306C0F11F10822E96E4E0ACC2ABE0B0E0EAE6A3
S11306D0F3E07DC26C017B018A01FC011782168262
S11306E0838181FFBFC1CE0101963C01F601938154
S11306F0F70193FD859193FF81917F01882309F48C
S1130700ADC1853239F493FD859193FF81917F01C9
S1130710853221F4B60190E0C0D1E8CF912C212C90
S1130720312CFFE1F315D8F08B3279F038F48032B4
S113073079F08332A1F4232D20611DC08D3261F044
S1130740803369F4232D216016C0832D8260382EF6
S1130750E32DE4603E2E2AC0F32DF8601DC037FC63
S11307602DC020ED280F2A3040F08E32B9F436FC2B
S113077075C1232D2064322E19C036FE06C08AE0CE
S1130780989E200D1124922E11C0EAE02E9E200D79
S11307901124222EF32DF0623F2E08C08C3621F452
S11307A0832D8068382E02C0883641F4F70193FD0A
S11307B0859193FF81917F018111B3CF982F9F7D04
S11307C09554933028F40C5F1F4F9FE399830DC019
S11307D0833631F0833771F0833509F055C020C07A
S11307E0F801808189830E5F1F4F88248394912CA4
S11307F0530112C02801F2E04F0E511CF801A080F1
S1130800B18036FE03C0692D70E002C06FEF7FEF48
S1130810C50138D14C018201F32DFF773F2E15C05D
S1130820280122E0420E511CF801A080B18036FE5E
S113083003C0692D70E002C06FEF7FEFC50117D1CF
S11308404C01F32DF0683F2E820133FC19C0822D38
S113085090E088169906A0F4B60180E290E01DD1DC
S11308602A94F5CFF50137FC859137FE81915F011C
S1130870B60190E012D121102A9421E0821A910845
S11308808114910479F7E1C0843611F0893639F581
S1130890F80137FE07C060817181828193810C5F0A
S11308A01F4F08C060817181072E000C880B990BC3
S11308B00E5F1F4FF32DFF763F2E97FF09C09095D3
S11308C08095709561957F4F8F4F9F4FF0683F2EB5
S11308D02AE030E0A3011DD1882E861844C0853754
S11308E031F4232D2F7EB22E2AE030E025C0932D43
S11308F0997FB92E8F36C1F018F4883579F0AEC0DF
S1130900803719F0883721F0A9C0E92FE061BE2EA5
S1130910B4FE0DC0FB2DF460BF2E09C034FE0AC026
S1130920292F2660B22E06C028E030E005C020E161
S113093030E002C020E132E0F801B7FE07C0608178
S11309407181828193810C5F1F4F06C06081718128
S113095080E090E00E5F1F4FA301DBD0882E861845
S1130960FB2DFF773F2E36FE0DC0232D2E7FA22EAA
S1130970891458F434FE0BC032FC09C0832D8E7EDA
S1130980A82E05C0B82CA32C03C0B82C01C0B92CC8
S1130990A4FE0FC0FE01E80DF11D8081803321F417
S11309A09A2D997EA92E09C0A2FE06C0B394B394D1
S11309B004C08A2D867809F0B394A3FC10C0A0FE6D
S11309C006C0B21480F4280C922C9B180DC0B214EB
S11309D058F4B60180E290E060D0B394F8CFB2143A
S11309E018F42B1802C0982C212CA4FE0FC0B601B9
S11309F080E390E052D0A2FE16C0A1FC03C088E7B9
S1130A0090E002C088E590E0B6010CC08A2D86789B
S1130A1051F0A1FE02C08BE201C080E2A7FC8DE28E
S1130A20B60190E03AD0891430F4B60180E390E046
S1130A3034D09A94F8CF8A94F301E80DF11D8081A3
S1130A40B60190E02AD08110F6CF222009F44ECED0
S1130A50B60180E290E021D02A94F7CFF601868196
S1130A60978102C08FEF9FEF2B96E2E1CCC0FC018F
S1130A700590615070400110D8F7809590958E0FC5
S1130A809F1F0895FC016150704001900110D8F738
S1130A90809590958E0F9F1F08950F931F93CF936A
S1130AA0DF93FB01238121FD03C08FEF9FEF2CC057
S1130AB022FF16C04681578124813581421753078E
S1130AC044F4A081B1819D012F5F3F4F3183208386
S1130AD08C93268137812F5F3F4F3783268314C041
S1130AE08B01EC01FB010084F185E02D0995892B34
S1130AF0E1F6D80116968D919C9117970196179659
S1130B009C938E931697CE01DF91CF911F910F91F5
S1130B100895FA01AA27283051F1203181F1E8948F
S1130B206F936E7F6E5F7F4F8F4F9F4FAF4FB1E0DC
S1130B303ED0B4E03CD0670F781F891F9A1FA11DD7
S1130B40680F791F8A1F911DA11D6A0F711D811DD8
S1130B50911DA11D20D009F468943F912AE0269F9D
S1130B6011243019305D3193DEF6CF010895462FFC
S1130B704770405D4193B3E00FD0C9F7F6CF462FDD
S1130B804F70405D4A3318F0495D31FD4052419346
S1130B9002D0A9F7EACFB4E0A69597958795779503
S1130BA06795BA95C9F700976105710508959B018A
S1130BB0AC010A2E06945795479537952795BA9513
S1130BC0C9F7620F731F841F951FA01D08952F92EC
S1130BD03F924F925F926F927F928F929F92AF92C9
S1130BE0BF92CF92DF92EF92FF920F931F93CF9316
S1130BF0DF93CDB7DEB7CA1BDB0B0FB6F894DEBFAD
S1130C000FBECDBF09942A88398848885F846E84D2
S1130C107D848C849B84AA84B984C884DF80EE801C
S1130C20FD800C811B81AA81B981CE0FD11D0FB625
S1130C30F894DEBF0FBECDBFED010895F894FFCF49
S1130C405000544849532049532054484520535494
S1130C50415254204F46205448452050524F475249
S1130C60414D0A0A0043757272656E742054656DB5
S1130C70703A202564204465736972656420546564
S10B0C806D703A2025640D009B
S9030000FC
