S018000073696D706C655F696E746572727570742E7372656336
S113000033C0000042C000003FC000003DC00000FB
S11300103BC0000039C0000037C0000035C00000FC
S113002033C0000031C000002FC000002DC000000C
S11300302BC0000029C0000027C0000025C000001C
S113004023C0000021C000001FC000001DC000002C
S11300501BC0000019C0000017C0000015C000003C
S113006013C0000011C0000011241FBECFEFD8E060
S1130070DEBFCDBF21E0A0E0B1E001C01D92A630FB
S1130080B207E1F72BD075C0BBCF1F920F920FB60A
S11300900F9211242F933F934F935F936F937F930A
S11300A08F939F93AF93BF93EF93FF9395B180E2A8
S11300B0892785B981E690E01BD0FF91EF91BF912C
S11300C0AF919F918F917F916F915F914F913F91EC
S11300D02F910F900FBE0F901F901895259A2D9871
S11300E05A9A83E08093690081E08DBB7894FFCFB6
S11300F0609102017091030100C00F931F93CF938D
S1130100DF93FB01238121FD03C08FEF9FEF2CC000
S113011022FF16C046815781248135814217530737
S113012044F4A081B1819D012F5F3F4F318320832F
S11301308C93268137812F5F3F4F3783268314C0EA
S11301408B01EC01FB010084F185E02D0995892BDD
S1130150E1F6D80116968D919C9117970196179602
S11301609C938E931697CE01DF91CF911F910F919F
S10901700895F894FFCF8E
S9030000FC
